:020000040001F9
:10000000E905024FD8583740EE0000000900000013
:1000100000630000000000012000163CEC7F1C0083
:100020003254CDAB000000000000000000000000D2
:10003000373632303932642D6469727479000000C9
:1000400000000000000000000000000000000000B0
:100050006573702D6D696E65720000000000000010
:100060000000000000000000000000000000000090
:1000700032303A35333A30340000000000000000DE
:1000800053657020323320323032360000000000D9
:1000900076352E332E3300000000000000000000F3
:1000A0000000000000000000000000000000000050
:1000B0009F1EBB4CA2C931C079C833A74D72590FDE
:1000C00004048A3D9F770757FC42D74E0890F4A658
:1000D0000000C70000000000000000000000000059
:1000E0000000000000000000000000000000000010
:1000F0000000000000000000000000000000000000
:1001000000000000000000000000000000000000EF
:1001100000000000000000000000000000000000DF
:100120006170705F696E6974000000001B5B303B9A
:1001300033326D492028256C75292025733A2041DA
:1001400070706C69636174696F6E20696E666F723E
:100150006D6174696F6E3A1B5B306D0A00000000C0
:100160001B5B303B33326D492028256C75292025D7
:10017000733A2050726F6A656374206E616D653AE0
:10018000202020202025731B5B306D0A000000001A
:100190001B5B303B33326D492028256C75292025A7
:1001A000733A204170702076657273696F6E3A20E1
:1001B000202020202025731B5B306D0A00000000EA
:1001C0001B5B303B33326D492028256C7529202577
:1001D000733A20436F6D70696C652074696D653A80
:1001E000202020202025732025731B5B306D0A0002
:1001F0001B5B303B33326D492028256C7529202547
:10020000733A20454C462066696C6520534841325C
:1002100035363A202025732E2E2E1B5B306D0A00BA
:100220001B5B303B33326D492028256C7529202516
:10023000733A204553502D4944463A20202020202F
:10024000202020202025731B5B306D0A0000000059
:1002500028636F6E73747261696E742069676E6F64
:10026000726564290000000065667573655F696EDC
:10027000697400001B5B303B33326D492028256CCC
:1002800075292025733A204D696E206368697020B6
:100290007265763A20202020207625642E25641B66
:1002A0005B306D0A000000001B5B303B33326D4950
:1002B0002028256C75292025733A204D617820630C
:1002C000686970207265763A2020202020762564A7
:1002D0002E25642025731B5B306D0A001B5B303BB1
:1002E00033326D492028256C75292025733A204327
:1002F000686970207265763A202020202020202016
:10030000207625642E25641B5B306D0A00000000FA
:100310001B5B303B33316D452028256C752920252A
:10032000733A202573282564293A204661696C6553
:100330006420696E20736563757265206546757308
:100340006520696E69741B5B306D0A0028626974F0
:100350005F73746172745F696E5F726567202B20D2
:100360006269745F636F756E745F757365645F69EE
:100370006E5F72656729203C3D203332000000002B
:100380002F2F4944462F636F6D706F6E656E7473C7
:100390002F65667573652F7372632F6573705F6564
:1003A000667573655F7574696C6974792E63000096
:1003B000626C6B203E3D203020262620626C6B2034
:1003C0003C2045465553455F424C4B5F4D415800DC
:1003D0006E756D5F726567203C3D202872616E67A7
:1003E000655F726561645F616464725F626C6F63B4
:1003F0006B735B626C6B5D2E656E64202D20726189
:100400006E67655F726561645F616464725F626C90
:100410006F636B735B626C6B5D2E737461727429B6
:10042000202F2073697A656F662875696E74333280
:100430005F74290065667573650000001B5B303BC7
:1004400033316D452028256C75292025733A2052BB
:10045000616E6765206F66206461746120646F65FA
:1004600073206E6F74206D617463682074686520FA
:10047000636F64696E6720736368656D651B5B30CD
:100480006D0A0000626974735F636F756E746572E4
:10049000203C3D207265715F73697A650000000041
:1004A0006370755F73746172740000001B5B303B96
:1004B00033326D492028256C75292025733A205048
:1004C000726F206370752073746172742075736528
:1004D0007220636F64651B5B306D0A001B5B303BF1
:1004E00033326D492028256C75292025733A206305
:1004F000707520667265713A20256420487A1B5B0E
:10050000306D0A00666C6173685F726574203D3DF2
:10051000204553505F4F4B002F2F4944462F636FA8
:100520006D706F6E656E74732F6573705F73797322
:1005300074656D2F737461727475705F66756E6328
:10054000732E63001B5B303B33316D452028256CD7
:1005500075292025733A2052756E6E696E67206F7B
:100560006E2073696E676C6520636F7265207661BB
:100570007269616E74206F66206120636869702CF7
:100580002062757420617070206973206275696CD7
:10059000742077697468206D756C74692D636F724F
:1005A0006520737570706F72742E1B5B306D0A005E
:1005B0001B5B303B33316D452028256C7529202588
:1005C000733A20436865636B207468617420434FFD
:1005D0004E4649475F4652454552544F535F554E2C
:1005E00049434F524520697320656E61626C6564B2
:1005F00020696E206D656E75636F6E6669671B5B43
:10060000306D0A00286D61736B202620284341431A
:1006100048455F4255535F4942555331207C204342
:10062000414348455F4255535F49425553327C2010
:1006300043414348455F4255535F4442555331203F
:100640007C2043414348455F4255535F44425553E4
:10065000322929203D3D2030000000002F4944462A
:100660002F636F6D706F6E656E74732F68616C2F82
:10067000657370333273332F696E636C7564652FE5
:1006800068616C2F63616368655F6C6C2E68000045
:100690001B5B303B33326D492028256C75292025A2
:1006A000733A204D756C7469636F72652061707068
:1006B0001B5B306D0A0000001B5B303B33316D4526
:1006C0002028256C75292025733A20457874657299
:1006D0006E616C2052414D206661696C6564206DCD
:1006E000656D6F72792074657374211B5B306D0AC0
:1006F000000000001B5B303B33316D452028256C2A
:1007000075292025733A204D656D70726F742066CF
:10071000656174757265206C6F636B6564206166DA
:10072000746572207468652073797374656D2072C6
:10073000657365742120506F74656E7469616C20F7
:1007400073616665747920636F7272757074696F16
:100750006E2C207265626F6F74696E672E1B5B3042
:100760006D0A00001B5B303B33316D452028256C42
:1007700075292025733A204661696C656420746F81
:1007800020736574204D656D70726F7420666561AD
:100790007475726520283078253038583A202573D2
:1007A000292C207265626F6F74696E672E1B5B3037
:1007B0006D0A00001B5B303B33316D452028256CF2
:1007C00075292025733A20496E76616C6964206131
:1007D000707020696D616765206865616465721B72
:1007E0005B306D0A00000000636C6B001B5B303BEC
:1007F00033336D572028256C75292025733A203313
:1008000032206B487A205854414C206E6F74206619
:100810006F756E642C20737769746368696E6720E6
:10082000746F20696E7465726E616C203135302092
:100830006B487A206F7363696C6C61746F721B5BB9
:10084000306D0A007274635F636C6B5F7874616C07
:100850005F667265715F6765742829203D3D20538E
:100860004F435F5854414C5F465245515F34304DC1
:10087000000000002F2F4944462F636F6D706F6E8C
:10088000656E74732F6573705F73797374656D2F04
:10089000706F72742F736F632F657370333273339D
:1008A0002F636C6B2E630000726573002868696E9D
:1008B00074202620287E5253545F524541534F4E98
:1008C0005F4D41534B2929203D3D20300000000061
:1008D0002F2F4944462F636F6D706F6E656E747372
:1008E0002F6573705F73797374656D2F706F727499
:1008F0002F736F632F657370333273332F72657389
:1009000065745F726561736F6E2E630047757275F3
:10091000204D656469746174696F6E204572726FF1
:10092000723A20436F726520000000002070616EF3
:100930006963276564202800292E2000536574749C
:10094000696E6720627265616B706F696E74206199
:10095000742030780000000020616E64207265749D
:1009600075726E696E672E2E2E0D0A000D0A454CAB
:10097000462066696C65205348413235363A20007E
:100980005265626F6F74696E672E2E2E0D0A00001D
:100990001B5B303B33316D452028256C75292025A4
:1009A000733A20696E69742066756E6374696F6E40
:1009B00020257020686173206661696C6564202859
:1009C00030782578292C2061626F7274696E671BFC
:1009D0005B306D0A00000000556E6B6E6F776E0025
:1009E0004D656D6F72792064756D70206174203073
:1009F000780000003A200000496361636865207355
:100A0000796E6320706172616D6574657220636FC9
:100A10006E66696775726174696F6E206572726F58
:100A2000722C20746865206572726F722061646434
:100A30007265737320616E642073697A65206973CF
:100A40002030780028307800290D0A00496361635E
:100A50006865207072656C6F616420706172616D91
:100A60006574657220636F6E66696775726174691B
:100A70006F6E206572726F722C20746865206572CB
:100A8000726F72206164647265737320616E64209A
:100A900073697A652069732030780000446361636C
:100AA00068652073796E6320706172616D6574652D
:100AB0007220636F6E66696775726174696F6E200C
:100AC0006572726F722C20746865206572726F7225
:100AD000206164647265737320616E642073697A47
:100AE0006520697320307800446361636865207015
:100AF00072656C6F616420706172616D657465729E
:100B000020636F6E66696775726174696F6E2065C8
:100B100072726F722C20746865206572726F722019
:100B20006164647265737320616E642073697A65B1
:100B30002069732030780000577269746520626103
:100B4000636B206572726F72206F6363757272657A
:100B500064207768696C65206463616368652074EC
:100B60007269657320746F207772697465206261A1
:100B7000636B20746F20666C6173680D0A0000005F
:100B800054686520666F6C6C6F77696E6720626170
:100B9000636B7472616365206D6179206E6F742080
:100BA000696E6469636174652074686520636F644D
:100BB00065207468617420636175736564204361A6
:100BC00063686520696E76616C6964206163636542
:100BD00073730D0A000000004D4D5520656E747250
:100BE00079206661756C74206572726F72206F6314
:100BF000637572726564207768696C6520616363F0
:100C0000657373696E6720746865206164647265DA
:100C100073732030780000002028696E76616C695B
:100C200064206D6D7520656E747279290000000076
:100C3000446562756720657863657074696F6E20BE
:100C4000726561736F6E3A200000000053696E6731
:100C50006C655374657020004877427265616B70F3
:100C60006F696E7420000000537461636B206361D0
:100C70006E617279207761746368706F696E742039
:100C80007472696767657265642028002920000016
:100C90005761746368706F696E7420302074726974
:100CA0006767657265642000425245414B20696E5A
:100CB0007374722000000000425245414B4E20697F
:100CC0006E737472200000004465627567496E742B
:100CD00072200000436F726520000000207265677B
:100CE00069737465722064756D703A00202000008D
:100CF000207761732072756E6E696E6720696E2051
:100D000049535220636F6E746578743A0D0A00007F
:100D100045504331202020203A2030780000000048
:100D2000202045504332202020203A2030780000F7
:100D3000202045504333202020203A2030780000E6
:100D4000202045504334202020203A2030780000D5
:100D5000504320202020202000000000505320205D
:100D600020202020000000004130202020202020D2
:100D70000000000041312020202020200000000041
:100D8000413220202020202000000000413320207C
:100D9000202020200000000041342020202020209E
:100DA000000000004135202020202020000000000D
:100DB0004136202020202020000000004137202044
:100DC000202020200000000041382020202020206A
:100DD00000000000413920202020202000000000D9
:100DE00041313020202020200000000041313120FE
:100DF000202020200000000041313220202020202F
:100E0000000000004131332020202020000000009D
:100E100041313420202020200000000041313520C5
:100E200020202020000000005341522020202020BC
:100E30000000000045584343415553450000000061
:100E40004558435641444452000000004C42454737
:100E500020202020000000004C454E44202020206F
:100E6000000000004C434F554E542020000000006D
:100E7000457863657074696F6E2077617320756E55
:100E800068616E646C65642E00000000556E6B6EC8
:100E90006F776E20726561736F6E0000556E6861CA
:100EA0006E646C656420646562756720657863654F
:100EB0007074696F6E000000446F75626C65206528
:100EC0007863657074696F6E00000000556E68612C
:100ED0006E646C6564206B65726E656C206578630A
:100EE000657074696F6E0000436F70726F63657335
:100EF000736F7220657863657074696F6E000000AF
:100F0000496E7465727275707420776474207469A8
:100F10006D656F7574206F6E204350553000000072
:100F2000496E746572727570742077647420746988
:100F30006D656F7574206F6E204350553100000051
:100F400043616368652064697361626C65642062F3
:100F5000757420636163686564206D656D6F727977
:100F600020726567696F6E20616363657373656482
:100F700000000000496C6C6567616C496E737472A7
:100F8000756374696F6E000053797363616C6C00F4
:100F9000496E737472756374696F6E4665746368C5
:100FA0004572726F720000004C6F616453746F720F
:100FB000654572726F7200004C6576656C31496EE2
:100FC0007465727275707400416C6C6F63610000BF
:100FD000496E746567657244697669646542795AD9
:100FE00065726F00504356616C756500507269768A
:100FF000696C6567656400004C6F616453746F725F
:1010000065416C69676E6D656E740000496E73743E
:10101000725044416464724572726F720000000045
:101020004C6F616453746F726550494644617461DA
:101030004572726F72000000496E737472504946B7
:10104000416464724572726F720000004C6F61649B
:1010500053746F7265504946416464724572726F91
:1010600072000000496E7374544C424D69737300F2
:10107000496E7374544C424D756C746948697400C0
:10108000496E7374466574636850726976696C65FD
:1010900067650000496E73747246657463685072C8
:1010A0006F68696269746564000000004C6F616478
:1010B00053746F7265544C424D69737300000000A5
:1010C0004C6F616453746F7265544C424D756C740F
:1010D00069686974000000004C6F616453746F723A
:1010E0006550726976696C65676500004C6F616474
:1010F00050726F68696269746564000053746F723E
:101100006550726F68696269746564004370304449
:1011100069730000437031446973000043703244C6
:1011200069730000437033446973000043703444B2
:10113000697300004370354469730000437036449E
:101140006973000043703744697300003A307800D7
:101150002030782530386C583A30782530386C5843
:10116000000000000D0A0D0A4261636B7472616336
:10117000653A0000207C3C2D434F52525550544557
:1011800044000000207C3C2D434F4E54494E5545B1
:10119000530000000D0A0D0A000000004E6F204EA3
:1011A000616D65001B5B303B33316D452028256C3C
:1011B00075292025733A202573282564293A20545F
:1011C00061736B20736E617073686F7420616C6CF7
:1011D0006F63206661696C65641B5B306D0A00009B
:1011E0001B5B303B33316D452028256C752920254C
:1011F000733A202573282564293A204950432063F7
:10120000616C6C206661696C65641B5B306D0A0003
:1012100044424720484C50520000000063707569FA
:1012200064203D3D2078506F7274476574436F723F
:1012300065494428290000002F2F4944462F636F39
:101240006D706F6E656E74732F6573705F737973F5
:1012500074656D2F6573705F6970632E63000000A5
:10126000726573203D3D2070645452554500000066
:1012700069706358000000004553505F4641494C77
:10128000000000004553505F4F4B00004553505F36
:101290004552525F4E4F5F4D454D00004553505FE4
:1012A0004552525F494E56414C49445F41524700B6
:1012B0004553505F4552525F494E56414C49445F39
:1012C00053544154450000004553505F4552525F0E
:1012D000494E56414C49445F53495A45000000006D
:1012E0004553505F4552525F4E4F545F464F554EE7
:1012F000440000004553505F4552525F4E4F545FCB
:10130000535550504F525445440000004553505FD0
:101310004552525F54494D454F5554004553505F17
:101320004552525F494E56414C49445F52455350D5
:101330004F4E5345000000004553505F4552525FE9
:10134000494E56414C49445F435243004553505F18
:101350004552525F494E56414C49445F564552539F
:10136000494F4E004553505F4552525F494E5641DA
:101370004C49445F4D4143004553505F4552525FD5
:101380004E4F545F46494E495348454400000000C3
:101390004553505F4552525F4E4F545F414C4C4F46
:1013A000574544004553505F4552525F4E56535F78
:1013B00042415345000000004553505F4552525F83
:1013C0004E56535F4E4F545F494E495449414C4924
:1013D0005A4544004553505F4552525F4E56535F45
:1013E0004E4F545F464F554E440000004553505FEA
:1013F0004552525F4E56535F545950455F4D4953C5
:101400004D415443480000004553505F4552525FE0
:101410004E56535F524541445F4F4E4C59000000B9
:101420004553505F4552525F4E56535F4E4F545F87
:10143000454E4F5547485F5350414345000000001B
:101440004553505F4552525F4E56535F494E564189
:101450004C49445F4E414D45000000004553505FEC
:101460004552525F4E56535F494E56414C49445F78
:1014700048414E444C4500004553505F4552525F31
:101480004E56535F52454D4F56455F4641494C4578
:10149000440000004553505F4552525F4E56535F23
:1014A0004B45595F544F4F5F4C4F4E470000000073
:1014B0004553505F4552525F4E56535F504147452A
:1014C0005F46554C4C0000004553505F4552525FFB
:1014D0004E56535F494E56414C49445F5354415414
:1014E000450000004553505F4552525F4E56535FD2
:1014F000494E56414C49445F4C454E4754480000C4
:101500004553505F4552525F4E56535F4E4F5F46B4
:101510005245455F50414745530000004553505FD9
:101520004552525F4E56535F56414C55455F544F9E
:101530004F5F4C4F4E4700004553505F4552525F3E
:101540004E56535F504152545F4E4F545F464F5575
:101550004E4400004553505F4552525F4E56535F14
:101560004E45575F56455253494F4E5F464F554E75
:10157000440000004553505F4552525F4E56535F42
:101580005854535F454E43525F4641494C454400D1
:101590004553505F4552525F4E56535F5854535F08
:1015A000444543525F4641494C4544004553505FD2
:1015B0004552525F4E56535F5854535F4346475F00
:1015C0004641494C454400004553505F4552525FE7
:1015D0004E56535F5854535F4346475F4E4F545FD8
:1015E000464F554E440000004553505F4552525FF0
:1015F0004E56535F454E43525F4E4F545F535550C6
:10160000504F5254454400004553505F4552525F7D
:101610004E56535F4B4559535F4E4F545F494E49A9
:101620005449414C495A4544000000004553505F1D
:101630004552525F4E56535F434F52525550545F7E
:101640004B45595F50415254000000004553505FD4
:101650004552525F4E56535F434F4E54454E545F72
:1016600044494646455253004553505F4552525FE8
:101670004E56535F57524F4E475F454E4352595057
:1016800054494F4E000000004553505F4552525F91
:101690004F54415F42415345000000004553505FA5
:1016A0004552525F4F54415F504152544954494F43
:1016B0004E5F434F4E464C49435400004553505FE4
:1016C0004552525F4F54415F53454C4543545F4927
:1016D0004E464F5F494E56414C4944004553505F7A
:1016E0004552525F4F54415F56414C494441544525
:1016F0005F4641494C4544004553505F4552525F57
:101700004F54415F534D414C4C5F5345435F5645E9
:10171000520000004553505F4552525F4F54415FA5
:10172000524F4C4C4241434B5F4641494C4544006B
:101730004553505F4552525F4F54415F524F4C4C9E
:101740004241434B5F494E56414C49445F535441DB
:10175000544500004553505F4552525F454655532E
:10176000450000004553505F4F4B5F45465553457C
:101770005F434E54000000004553505F4552525F96
:1017800045465553455F434E545F49535F46554C5C
:101790004C0000004553505F4552525F454655533B
:1017A000455F52455045415445445F50524F4700B4
:1017B0004553505F4552525F434F44494E470000E6
:1017C0004553505F4552525F4E4F545F454E4F5503
:1017D00047485F554E555345445F4B45595F424C12
:1017E0004F434B53000000004553505F4552525F3A
:1017F00044414D414745445F52454144494E4700AD
:101800004553505F4552525F494D4147455F424104
:10181000534500004553505F4552525F494D414783
:10182000455F464C4153485F4641494C000000002B
:101830004553505F4552525F494D4147455F494EC0
:1018400056414C49440000004553505F4552525F99
:10185000574946495F424153450000004553505F98
:101860004552525F574946495F4E4F545F494E4972
:10187000540000004553505F4552525F5749464956
:101880005F4E4F545F535441525445440000000092
:101890004553505F4552525F574946495F4E4F543A
:1018A0005F53544F50504544000000004553505F73
:1018B0004552525F574946495F4946004553505F7C
:1018C0004552525F574946495F4D4F44450000001D
:1018D0004553505F4552525F574946495F53544103
:1018E000544500004553505F4552525F57494649A1
:1018F0005F434F4E4E0000004553505F4552525FCC
:10190000574946495F4E5653000000004553505F0B
:101910004552525F574946495F4D41430000000020
:101920004553505F4552525F574946495F535349AB
:10193000440000004553505F4552525F57494649A5
:101940005F50415353574F52440000004553505F7E
:101950004552525F574946495F54494D454F55548A
:10196000000000004553505F4552525F57494649B9
:101970005F57414B455F4641494C00004553505F1E
:101980004552525F574946495F574F554C445F4255
:101990004C4F434B000000004553505F4552525F8F
:1019A000574946495F4E4F545F434F4E4E4543544F
:1019B000000000004553505F4552525F5749464969
:1019C0005F504F53540000004553505F4552525FE3
:1019D000574946495F494E49545F53544154450065
:1019E0004553505F4552525F574946495F53544FE4
:1019F000505F5354415445004553505F4552525F28
:101A0000574946495F4E4F545F4153534F4300007F
:101A10004553505F4552525F574946495F54585F9E
:101A2000444953414C4C4F57000000004553505F10
:101A30004552525F574946495F5457545F46554C8B
:101A40004C0000004553505F4552525F574946498C
:101A50005F5457545F53455455505F54494D454F5B
:101A6000555400004553505F4552525F574946490F
:101A70005F5457545F53455455505F54584641493D
:101A80004C0000004553505F4552525F574946494C
:101A90005F5457545F53455455505F52454A454330
:101AA000540000004553505F4552525F5749464924
:101AB0005F44495343415244000000004553505F86
:101AC0004552525F574946495F524F435F494E5F07
:101AD00050524F4752455353000000004553505F4A
:101AE0004552525F574946495F5245474953545200
:101AF000415200004553505F4552525F5749464995
:101B00005F5750535F545950450000004553505F94
:101B10004552525F574946495F5750535F534D00F6
:101B20004553505F4552525F4553504E4F575F42A9
:101B3000415345004553505F4552525F4553504E07
:101B40004F575F4E4F545F494E4954004553505FC5
:101B50004552525F4553504E4F575F415247000028
:101B60004553505F4552525F4553504E4F575F4E5D
:101B70004F5F4D454D0000004553505F4552525F49
:101B80004553504E4F575F46554C4C004553505FA0
:101B90004552525F4553504E4F575F4E4F545F462C
:101BA0004F554E44000000004553505F4552525F70
:101BB0004553504E4F575F494E5445524E414C008D
:101BC0004553505F4552525F4553504E4F575F4506
:101BD00058495354000000004553505F4552525F2E
:101BE0004553504E4F575F49460000004553505FE4
:101BF0004552525F4553504E4F575F4348414E0048
:101C00004553505F4552525F4450505F4641494CE6
:101C1000555245004553505F4552525F4450505F06
:101C200054585F4641494C55524500004553505F5A
:101C30004552525F4450505F494E56414C49445FB3
:101C400041545452000000004553505F4552525FCA
:101C50004450505F415554485F54494D454F555489
:101C6000000000004553505F4552525F4450505FA2
:101C7000494E56414C49445F4C49535400000000C2
:101C80004553505F4552525F4D4553485F42415363
:101C9000450000004553505F4552525F4D45534843
:101CA0005F574946495F4E4F545F53544152540069
:101CB0004553505F4552525F4D4553485F4E4F5418
:101CC0005F494E49540000004553505F4552525FF2
:101CD0004D4553485F4E4F545F434F4E4649470072
:101CE0004553505F4552525F4D4553485F4E4F54E8
:101CF0005F535441525400004553505F4552525F68
:101D00004D4553485F4E4F545F535550504F5254BA
:101D1000000000004553505F4552525F4D45534807
:101D20005F4E4F545F414C4C4F57454400000000FC
:101D30004553505F4552525F4D4553485F4E4F5F8C
:101D40004D454D4F525900004553505F4552525F2B
:101D50004D4553485F415247554D454E5400000094
:101D60004553505F4552525F4D4553485F45584378
:101D70004545445F4D5455004553505F4552525FB1
:101D80004D4553485F54494D454F555400000000A0
:101D90004553505F4552525F4D4553485F44495348
:101DA000434F4E4E45435445440000004553505F59
:101DB0004552525F4D4553485F51554555455F4625
:101DC00041494C004553505F4552525F4D45534881
:101DD0005F51554555455F46554C4C004553505F46
:101DE0004552525F4D4553485F4E4F5F50415245FB
:101DF0004E545F464F554E44000000004553505F1F
:101E00004552525F4D4553485F4E4F5F524F5554B8
:101E1000455F464F554E44004553505F4552525F13
:101E20004D4553485F4F5054494F4E5F4E554C4CB3
:101E3000000000004553505F4552525F4D455348E6
:101E40005F4F5054494F4E5F554E4B4E4F574E00CB
:101E50004553505F4552525F4D4553485F584F4E72
:101E60005F4E4F5F57494E444F5700004553505FF8
:101E70004552525F4D4553485F494E544552464185
:101E8000434500004553505F4552525F4D4553480E
:101E90005F444953434152445F4455504C49434188
:101EA000544500004553505F4552525F4D455348DD
:101EB0005F44495343415244000000004553505F82
:101EC0004552525F4D4553485F564F54494E470067
:101ED0004553505F4552525F4D4553485F584D49F9
:101EE000540000004553505F4552525F4D455348E2
:101EF0005F51554555455F52454144004553505F3C
:101F00004552525F4D4553485F5053004553505F13
:101F10004552525F4D4553485F524543565F5245C7
:101F20004C454153450000004553505F4552525FB8
:101F30004553505F4E455449465F4241534500006A
:101F40004553505F4552525F4553505F4E4554498B
:101F5000465F494E56414C49445F504152414D53B2
:101F6000000000004553505F4552525F4553505F9B
:101F70004E455449465F49465F4E4F545F52454176
:101F8000445900004553505F4552525F4553505FDE
:101F90004E455449465F44484350435F5354415271
:101FA000545F4641494C4544000000004553505F92
:101FB0004552525F4553505F4E455449465F444831
:101FC00043505F414C52454144595F535441525430
:101FD000454400004553505F4552525F4553505FA2
:101FE0004E455449465F444843505F414C52454139
:101FF00044595F53544F5050454400004553505F7F
:102000004552525F4553505F4E455449465F4E4FCF
:102010005F4D454D000000004553505F4552525FF3
:102020004553505F4E455449465F444843505F4EC8
:102030004F545F53544F5050454400004553505F38
:102040004552525F4553505F4E455449465F445296
:10205000495645525F4154544143485F4641494CBB
:10206000454400004553505F4552525F4553505F11
:102070004E455449465F494E49545F4641494C4597
:10208000440000004553505F4552525F4553505F36
:102090004E455449465F444E535F4E4F545F434F45
:1020A0004E46494755524544000000004553505F95
:1020B0004552525F4553505F4E455449465F4D4C23
:1020C00044365F4641494C45440000004553505F4B
:1020D0004552525F4553505F4E455449465F495003
:1020E000365F414444525F4641494C45440000003C
:1020F0004553505F4552525F4553505F4E455449DA
:10210000465F44484350535F53544152545F4641E5
:10211000494C4544000000004553505F4552525F12
:10212000464C4153485F4241534500004553505F80
:102130004552525F464C4153485F4F505F464149BC
:102140004C0000004553505F4552525F464C41538E
:10215000485F4F505F54494D454F555400000000B3
:102160004553505F4552525F464C4153485F4E4F76
:10217000545F494E495449414C495345440000007D
:102180004553505F4552525F464C4153485F554E50
:10219000535550504F525445445F484F53540000DC
:1021A0004553505F4552525F464C4153485F554E30
:1021B000535550504F525445445F434849500000D6
:1021C0004553505F4552525F464C4153485F505211
:1021D0004F544543544544004553505F4552525F68
:1021E000485454505F424153450000004553505FEE
:1021F0004552525F485454505F4D41585F524544D8
:1022000049524543540000004553505F4552525FC8
:10221000485454505F434F4E4E4543540000000015
:102220004553505F4552525F485454505F5752498E
:1022300054455F44415441004553505F4552525FFD
:10224000485454505F46455443485F4845414445CF
:10225000520000004553505F4552525F485454505D
:102260005F494E56414C49445F5452414E53504F82
:10227000525400004553505F4552525F48545450E9
:102280005F434F4E4E454354494E47004553505FC0
:102290004552525F485454505F45414741494E00B2
:1022A0004553505F4552525F485454505F434F4E20
:1022B0004E454354494F4E5F434C4F5345440000F5
:1022C0004553505F4552525F4553505F544C535FE6
:1022D00042415345000000004553505F4552525F54
:1022E0004553505F544C535F43414E4E4F545F52E1
:1022F00045534F4C56455F484F53544E414D450052
:102300004553505F4552525F4553505F544C535FA5
:1023100043414E4E4F545F4352454154455F534FE6
:10232000434B4554000000004553505F4552525FF7
:102330004553505F544C535F554E535550504F5278
:102340005445445F50524F544F434F4C5F46414DAC
:10235000494C59004553505F4552525F4553505FB9
:10236000544C535F4641494C45445F434F4E4E45A4
:1023700043545F544F5F484F535400004553505FE0
:102380004552525F4553505F544C535F534F434B3C
:1023900045545F5345544F50545F4641494C454462
:1023A000000000004553505F4552525F4553505F57
:1023B000544C535F434F4E4E454354494F4E5F5428
:1023C000494D454F555400004553505F4552525FAB
:1023D0004553505F544C535F53455F4641494C450C
:1023E000440000004553505F4552525F4553505FD3
:1023F000544C535F5443505F434C4F5345445F46E6
:10240000494E00004553505F4552525F4D4245448E
:10241000544C535F434552545F504152544C595FA2
:102420004F4B00004553505F4552525F4D4245446B
:10243000544C535F4354525F445242475F534545A7
:10244000445F4641494C4544000000004553505FFD
:102450004552525F4D424544544C535F53534C5F79
:102460005345545F484F53544E414D455F46414993
:102470004C4544004553505F4552525F4D424544E0
:10248000544C535F53534C5F434F4E4649475F4450
:10249000454641554C54535F4641494C4544000024
:1024A0004553505F4552525F4D424544544C535F33
:1024B00053534C5F434F4E465F414C504E5F50521A
:1024C0004F544F434F4C535F4641494C45440000E5
:1024D0004553505F4552525F4D424544544C535F03
:1024E000583530395F4352545F50415253455F462F
:1024F00041494C45440000004553505F4552525FEE
:102500004D424544544C535F53534C5F434F4E46EA
:102510005F4F574E5F434552545F4641494C4544D7
:10252000000000004553505F4552525F4D42454404
:10253000544C535F53534C5F53455455505F464181
:10254000494C4544000000004553505F4552525FDE
:102550004D424544544C535F53534C5F575249547A
:10256000455F4641494C4544000000004553505FDB
:102570004552525F4D424544544C535F504B5F505F
:10258000415253455F4B45595F4641494C454400D4
:102590004553505F4552525F4D424544544C535F42
:1025A00053534C5F48414E445348414B455F46416D
:1025B000494C4544000000004553505F4552525F6E
:1025C0004D424544544C535F53534C5F434F4E462A
:1025D0005F50534B5F4641494C4544004553505F63
:1025E0004552525F4D424544544C535F53534C5FE8
:1025F0005449434B45545F53455455505F464149F8
:102600004C4544004553505F4552525F574F4C462E
:1026100053534C5F53534C5F5345545F484F53548F
:102620004E414D455F4641494C4544004553505F3E
:102630004552525F574F4C4653534C5F53534C5F78
:10264000434F4E465F414C504E5F50524F544F43A4
:102650004F4C535F4641494C454400004553505F41
:102660004552525F574F4C4653534C5F434552546B
:102670005F5645524946595F53455455505F464150
:10268000494C4544000000004553505F4552525F9D
:10269000574F4C4653534C5F4B45595F5645524933
:1026A00046595F53455455505F4641494C45440097
:1026B0004553505F4552525F574F4C4653534C5F02
:1026C00053534C5F48414E445348414B455F46414C
:1026D000494C4544000000004553505F4552525F4D
:1026E000574F4C4653534C5F4354585F53455455D2
:1026F000505F4641494C4544000000004553505F3F
:102700004552525F574F4C4653534C5F53534C5FA7
:1027100053455455505F4641494C45440000000024
:102720004553505F4552525F574F4C4653534C5F91
:1027300053534C5F57524954455F4641494C4544B9
:10274000000000004553505F4552525F48545450BA
:10275000535F4F54415F4241534500004553505F22
:102760004552525F48545450535F4F54415F494E55
:102770005F50524F47524553530000004553505F3E
:102780004552525F50494E475F4241534500000059
:102790004553505F4552525F50494E475F494E5630
:1027A000414C49445F504152414D53004553505FA5
:1027B0004552525F50494E475F4E4F5F4D454D0069
:1027C0004553505F4552525F48545450445F424114
:1027D000534500004553505F4552525F4854545092
:1027E000445F48414E444C4552535F46554C4C0063
:1027F0004553505F4552525F48545450445F4841DE
:102800004E444C45525F4558495354530000000014
:102810004553505F4552525F48545450445F494EAF
:1028200056414C49445F5245510000004553505FAA
:102830004552525F48545450445F524553554C548E
:102840005F5452554E4300004553505F4552525F0E
:1028500048545450445F524553505F48445200001E
:102860004553505F4552525F48545450445F52455F
:1028700053505F53454E44004553505F4552525F9D
:1028800048545450445F414C4C4F435F4D454D00BC
:102890004553505F4552525F48545450445F544131
:1028A000534B00004553505F4552525F48575F43BA
:1028B000525950544F5F4241534500004553505FB9
:1028C0004552525F48575F43525950544F5F4453EB
:1028D0005F484D41435F4641494C00004553505FBE
:1028E0004552525F48575F43525950544F5F4453CB
:1028F0005F494E56414C49445F4B4559000000002A
:102900004553505F4552525F48575F4352595054A8
:102910004F5F44535F494E56414C49445F444947D9
:10292000455354004553505F4552525F48575F43EB
:10293000525950544F5F44535F494E56414C49449D
:102940005F50414444494E47000000004553505FEA
:102950004552525F4D454D50524F545F4241534591
:10296000000000004553505F4552525F4D454D50A9
:10297000524F545F4D454D4F52595F545950455F2A
:10298000494E56414C4944004553505F4552525FB1
:102990004D454D50524F545F53504C49545F414444
:1029A00044525F494E56414C494400004553505FE4
:1029B0004552525F4D454D50524F545F53504C4914
:1029C000545F414444525F4F55545F4F465F5241FC
:1029D0004E4745004553505F4552525F4D454D505F
:1029E000524F545F53504C49545F414444525F55D9
:1029F0004E414C49474E4544000000004553505F4E
:102A00004552525F4D454D50524F545F554E494DC2
:102A1000474D545F424C4F434B5F494E56414C49E2
:102A2000440000004553505F4552525F4D454D50A4
:102A3000524F545F574F524C445F494E56414C4998
:102A4000440000004553505F4552525F4D454D5084
:102A5000524F545F415245415F494E56414C4944A3
:102A6000000000004553505F4552525F4D454D50A8
:102A7000524F545F43505549445F494E56414C496B
:102A80004400000069203D3D2030207C7C20735FA5
:102A90006C6F675F63616368655B2869202D203117
:102AA00029202F20325D2E67656E65726174696F13
:102AB0006E203C20735F6C6F675F63616368655B6A
:102AC000695D2E67656E65726174696F6E000000E6
:102AD0002F2F4944462F636F6D706F6E656E747350
:102AE0002F6C6F672F6C6F672E63000068656170D5
:102AF0005F73697A65203C3D20484541505F5349EA
:102B00005A455F4D415800002F2F4944462F636FAF
:102B10006D706F6E656E74732F686561702F686578
:102B200061705F636170735F696E69742E6300002A
:102B3000686561705F696E69740000001B5B303B03
:102B400033326D492028256C75292025733A204998
:102B50006E697469616C697A696E672E2052414DA5
:102B600020617661696C61626C6520666F722064B9
:102B7000796E616D696320616C6C6F636174696FFC
:102B80006E3A1B5B306D0A00686561705F6964783E
:102B9000203C3D206E756D5F6865617073000000BC
:102BA0006C6F636B000000002F2F4944462F636F4A
:102BB0006D706F6E656E74732F6573705F68775F8D
:102BC000737570706F72742F696E636C7564652FA6
:102BD0007370696E6C6F636B2E6800001B5B303B1B
:102BE00033326D492028256C75292025733A204100
:102BF000742025303858206C656E202530385820D8
:102C0000282564204B6942293A2025731B5B306DCF
:102C10000A000000686561705F696478203D3D20AE
:102C20006E756D5F6865617073000000534C4953A9
:102C3000545F454D50545928267265676973746511
:102C40007265645F68656170732900006865617012
:102C5000735F617272617920213D204E554C4C00AA
:102C6000434F525255505420484541503A206D75BB
:102C70006C74695F686561702E633A2564206465D1
:102C80007465637465642061742030782530387809
:102C90000A00000073746172745F70747200000047
:102CA0002F2F4944462F636F6D706F6E656E74737E
:102CB0002F686561702F6D756C74695F68656170F0
:102CC0002E63000073697A656F6628756E73696795
:102CD0006E656420696E7429202A20434841525F42
:102CE000424954203E3D20636F6E74726F6C2D3EDE
:102CF000736C5F696E6465785F636F756E742026B0
:102D0000262022434841525F424954206C65737328
:102D1000207468616E20736C5F696E6465785F63B0
:102D20006F756E74220000002F2F4944462F636F89
:102D30006D706F6E656E74732F686561702F746C43
:102D400073662F746C73662E63000000414C494714
:102D50004E5F53495A45203D3D20636F6E74726F3C
:102D60006C2D3E736D616C6C5F626C6F636B5F7337
:102D7000697A65202F20636F6E74726F6C2D3E73BD
:102D80006C5F696E6465785F636F756E74000000D8
:102D900066726565000000000925702025732073A8
:102DA000697A653A20257820282570290A000000D4
:102DB00021626C6F636B5F69735F6C61737428620F
:102DC0006C6F636B290000002F2F4944462F636FFF
:102DD0006D706F6E656E74732F686561702F746CA3
:102DE00073662F746C73665F626C6F636B5F66757E
:102DF0006E6374696F6E732E68000000746C736686
:102E00005F6164645F706F6F6C3A204D656D6F72C7
:102E100079206D75737420626520616C69676E65D9
:102E2000642062792025752062797465732E0A000A
:102E3000746C73665F6164645F706F6F6C3A204D91
:102E4000656D6F72792073697A65206D7573742072
:102E50006265206265747765656E20257520616EF8
:102E6000642025752062797465732E0A00000000C5
:102E700063757272656E74202626202266726565FF
:102E8000206C6973742063616E6E6F742068617664
:102E9000652061206E756C6C20656E7472792200FD
:102EA000626C6F636B202626202263616E6E6F74E6
:102EB00020696E736572742061206E756C6C20657C
:102EC0006E74727920696E746F2074686520667202
:102ED0006565206C6973742200000000626C6F638A
:102EE0006B5F746F5F70747228626C6F636B292004
:102EF0003D3D20616C69676E5F70747228626C6F13
:102F0000636B5F746F5F70747228626C6F636B29A0
:102F10002C20414C49474E5F53495A4529202626CB
:102F20002022626C6F636B206E6F7420616C696726
:102F30006E65642070726F7065726C79220000009B
:102F4000626C6F636B5F69735F6672656528626C44
:102F50006F636B292026262022626C6F636B2073BF
:102F6000686F756C6420626520667265652200007A
:102F700021626C6F636B5F69735F6672656528625F
:102F80006C6F636B5F6E65787428626C6F636B291E
:102F90002920262620226E65787420626C6F636B70
:102FA0002073686F756C64206E6F74206265206694
:102FB0007265652200000000626C6F636B5F73696D
:102FC0007A6528626C6F636B5F6E65787428626CDB
:102FD0006F636B2929203D3D203020262620226E5C
:102FE00065787420626C6F636B2073697A652073F7
:102FF000686F756C64206265207A65726F220000CC
:10300000707265762026262022707265765F667261
:103010006565206669656C642063616E206E6F74FF
:10302000206265206E756C6C220000006E657874FD
:1030300020262620226E6578745F6672656520669C
:1030400069656C642063616E206E6F742062652018
:103050006E756C6C22000000746C73665F63726541
:103060006174653A204D656D6F7279206D7573746A
:1030700020626520616C69676E656420746F20252D
:10308000752062797465732E0A000000736C5F6DA1
:1030900061702026262022696E7465726E616C2034
:1030A0006572726F72202D207365636F6E64206C81
:1030B0006576656C206269746D6170206973206E3D
:1030C000756C6C2200000000626C6F636B5F73694B
:1030D0007A6528626C6F636B29203E3D2073697AA4
:1030E0006500000073697A65202626202273697ABC
:1030F00065206D757374206265206E6F6E2D7A6524
:10310000726F2200626C6F636B5F69735F667265DA
:103110006528626C6F636B292026262022626C6F03
:10312000636B206D7573742062652066726565221D
:1031300000000000626C6F636B5F746F5F7074728D
:103140002872656D61696E696E6729203D3D206159
:103150006C69676E5F70747228626C6F636B5F740A
:103160006F5F7074722872656D61696E696E672930
:103170002C20414C49474E5F53495A452920262669
:10318000202272656D61696E696E6720626C6F6383
:103190006B206E6F7420616C69676E65642070725D
:1031A0006F7065726C792200626C6F636B5F73691C
:1031B0007A6528626C6F636B29203D3D2072656DD6
:1031C00061696E5F73697A65202B2073697A652067
:1031D0002B20626C6F636B5F6865616465725F6F03
:1031E0007665726865616400626C6F636B5F7369BA
:1031F0007A652872656D61696E696E6729203E3D4A
:1032000020626C6F636B5F73697A655F6D696E20B6
:1032100026262022626C6F636B2073706C697420A9
:103220007769746820696E76616C69642073697A65
:103230006522000030203D3D2028616C69676E20CA
:10324000262028616C69676E202D203129292026CF
:103250002620226D75737420616C69676E20746F0F
:10326000206120706F776572206F662074776F22FF
:1032700000000000676170203E3D206761705F6D57
:10328000696E696D756D2026262022676170207336
:10329000697A6520746F6F20736D616C6C22000019
:1032A00021626C6F636B5F69735F6672656528622C
:1032B0006C6F636B292026262022626C6F636B2063
:1032C000616C7265616479206D61726B6564206107
:1032D000732066726565220070726576202626204E
:1032E000227072657620706879736963616C206200
:1032F0006C6F636B2063616E2774206265206E754E
:103300006C6C2200626C6F636B5F69735F667265E1
:1033100065287072657629202626202270726576CF
:1033200020626C6F636B206973206E6F742066720D
:1033300065652074686F756768206D61726B656480
:1033400020617320737563682200000021626C6F36
:10335000636B5F69735F6C61737428707265762943
:10336000202626202270726576696F757320626C44
:103370006F636B2063616E2774206265206C6173DC
:10338000742200006E65787420262620226E6578EF
:103390007420706879736963616C20626C6F636B11
:1033A0002063616E2774206265206E756C6C22004C
:1033B000434F525255505420484541503A20496E8F
:1033C00076616C6964206461746120617420257089
:1033D0002E20457870656374656420307825303818
:1033E0007820676F74203078253038780A00000024
:1033F000434F525255505420484541503A20496E4F
:1034000076616C6964206461746120617420257048
:103410002E204578706563746564203078253032DD
:103420007820676F74203078253032780A000000E9
:10343000434F525255505420484541503A20426122
:103440006420686561642061742025702E204578B1
:103450007065637465642030782530387820676F34
:1034600074203078253038780A000000434F5252DB
:1034700055505420484541503A20426164207461BF
:10348000696C2061742025702E2045787065637406
:1034900065642030782530387820676F7420307864
:1034A000253038780A000000726574002F2F4944D7
:1034B000462F636F6D706F6E656E74732F686561F4
:1034C000702F6D756C74695F686561705F706F698E
:1034D000736F6E696E672E6300000000686561643B
:1034E00020213D204E554C4C000000007265736554
:1034F000727665645B695D2E7374617274203C3D05
:103500002072657365727665645B695D2E656E64B5
:10351000000000002F2F4944462F636F6D706F6EBF
:10352000656E74732F686561702F706F72742F6D84
:10353000656D6F72795F6C61796F75745F757469B1
:103540006C732E63000000007265736572766564AB
:103550005B69202B20315D2E7374617274203E20D4
:1035600072657365727665645B695D2E73746172F2
:10357000740000006D656D6F72795F6C61796F75B5
:10358000740000001B5B303B33316D452028256CF7
:1035900075292025733A20534F435F5245534552B6
:1035A00056455F4D454D4F52595F524547494F4E25
:1035B00020726567696F6E2072616E676520307872
:1035C00025303878202D20307825303878206F76D7
:1035D00065726C617073207769746820307825306B
:1035E0003878202D203078253038781B5B306D0AF4
:1035F0000000000052414D004452414D00000000C7
:103600004952414D0000000053504952414D0000C5
:1036100052544352414D00006573705F7074725F85
:10362000696E5F646972616D5F6472616D2828768E
:103630006F6964202A2964737461727429207C7C08
:10364000206573705F7074725F696E5F7274635F20
:103650006472616D5F666173742828766F69642097
:103660002A29647374617274290000002F2F494461
:10367000462F636F6D706F6E656E74732F68656132
:10368000702F686561705F636170735F62617365FD
:103690002E6300006573705F7074725F696E5F64A3
:1036A0006972616D5F6472616D2828766F6964204C
:1036B0002A2964656E6429207C7C206573705F70A4
:1036C00074725F696E5F7274635F6472616D5F666E
:1036D0006173742828766F6964202A2964656E6492
:1036E0002900000028647374617274202620332935
:1036F000203D3D20300000002864656E64202620B7
:103700003329203D3D2030006865617020213D2037
:103710004E554C4C202626202266726565282920AD
:1037200074617267657420706F696E746572206968
:1037300073206F75747369646520686561702061BA
:1037400072656173220000006865617020213D2070
:103750004E554C4C20262620227265616C6C6F639E
:10376000282920706F696E746572206973206F75E7
:103770007473696465206865617020617265617346
:10378000220000006F6C645F73697A65203E203010
:1037900000000000636F72655F6964203E3D203069
:1037A00020262620636F72655F6964203C20534F9A
:1037B000435F4350555F434F5245535F4E554D0055
:1037C0002F2F4944462F636F6D706F6E656E747353
:1037D0002F6573705F68775F737570706F72742F89
:1037E0006370752E6300000062756620213D204ED7
:1037F000554C4C002F2F4944462F636F6D706F6EF0
:10380000656E74732F6573705F68775F7375707022
:103810006F72742F68775F72616E646F6D2E6300D4
:1038200073766420213D204E554C4C002F2F494487
:10383000462F636F6D706F6E656E74732F65737056
:103840005F68775F737570706F72742F696E7472D2
:103850005F616C6C6F632E63000000002128287686
:10386000642D3E666C6167732026205645434445AF
:1038700053435F464C5F5348415245442920262616
:10388000202876642D3E666C61677320262056459D
:1038900043444553435F464C5F4E4F4E534841525D
:1038A0004544292900000000696E74725F616C6CE8
:1038B0006F6300001B5B303B33316D452028256C66
:1038C00075292025733A204E6F2066726565206940
:1038D0006E7465727275707420696E707574732081
:1038E000666F7220257320696E74657272757074CC
:1038F0002028666C6167732030782558291B5B305F
:103900006D0A0000696E74725F6E756D203E3D2019
:103910003020262620696E74725F6E756D203C2003
:10392000534F435F4350555F494E54525F4E554D80
:10393000000000002F2F4944462F636F6D706F6E9B
:10394000656E74732F6573705F68775F73757070E1
:103950006F72742F696E636C7564652F6573705F29
:103960006370752E6800000073766400706572697C
:103970007068203C205045524950485F4D4F445597
:103980004C455F4D415800002F2F4944462F636F2F
:103990006D706F6E656E74732F6573705F68775F9F
:1039A000737570706F72742F7065726970685F6381
:1039B00074726C2E63000000736C6565700000000B
:1039C0001B5B303B33326D492028256C752920253F
:1039D000733A20436F6E66696775726520746F2055
:1039E00069736F6C61746520616C6C204750494F3E
:1039F0002070696E7320696E20736C65657020732A
:103A0000746174651B5B306D0A000000446973616A
:103A1000626C65001B5B303B33326D492028256C9E
:103A200075292025733A202573206175746F6D61A7
:103A300074696320737769746368696E67206F6661
:103A4000204750494F20736C65657020636F6E6628
:103A5000696775726174696F6E1B5B306D0A000077
:103A60001B5B303B33316D452028256C75292025A3
:103A7000733A205245474932435F534152414443D0
:103A800020697320616C7265616479206469736177
:103A9000626C65641B5B306D0A000000524547494B
:103AA0003243000063616C69625F76657273696FAF
:103AB0006E203D3D203100002F2F4944462F636F7B
:103AC0006D706F6E656E74732F6573705F68775F6E
:103AD000737570706F72742F706F72742F6573705E
:103AE000333273332F7274635F696E69742E6300AF
:103AF0007076745F736368656D655F766572203D8F
:103B00003D203100727463696E6974001B5B303B49
:103B100033336D572028256C75292025733A206F83
:103B20005F636F64652063616C6962726174696F61
:103B30006E206661696C0A1B5B306D0A0000000034
:103B4000736C6F77636C6B5F6379636C6573000094
:103B50002F2F4944462F636F6D706F6E656E7473BF
:103B60002F6573705F68775F737570706F72742FF5
:103B7000706F72742F657370333273332F72746386
:103B80005F74696D652E6300706572696F64000013
:103B90007361725F7065726970685F6374726C00E4
:103BA0001B5B303B33316D452028256C7529202562
:103BB000733A2025732063616C6C65642C206275F8
:103BC0007420735F7361725F706F7765725F6F6E81
:103BD0005F636E74203D3D20301B5B306D0A00003A
:103BE000466174616C206572726F723A204D616932
:103BF0006E20492F442073706C6974206C696E6567
:103C000020636F6E66696775726174696F6E206399
:103C10006F7272757074656420286578706563745E
:103C200065642030782530386C582C2073746F729E
:103C300065642030782530386C58290A000000006F
:103C4000466174616C206572726F723A204952410C
:103C50004D3020495F302073706C6974206C696E40
:103C60006520636F6E66696775726174696F6E2037
:103C7000636F72727570746564202865787065630F
:103C80007465642030782530386C582C2073746F3C
:103C90007265642030782530386C58290A0000009D
:103CA000466174616C206572726F723A20495241AC
:103CB0004D3020495F312073706C6974206C696EDF
:103CC0006520636F6E66696775726174696F6E20D7
:103CD000636F7272757074656420286578706563AF
:103CE0007465642030782530386C582C2073746FDC
:103CF0007265642030782530386C58290A0000003D
:103D0000466174616C206572726F723A2044524150
:103D10004D3020445F302073706C6974206C696E84
:103D20006520636F6E66696775726174696F6E2076
:103D3000636F72727570746564202865787065634E
:103D40007465642030782530386C582C2073746F7B
:103D50007265642030782530386C58290A000000DC
:103D6000466174616C206572726F723A20445241F0
:103D70004D3020445F312073706C6974206C696E23
:103D80006520636F6E66696775726174696F6E2016
:103D9000636F7272757074656420286578706563EE
:103DA0007465642030782530386C582C2073746F1B
:103DB0007265642030782530386C58290A0000007C
:103DC000466174616C206572726F723A204952418B
:103DD0004D3020504D5320415245415F3020636F9C
:103DE0006E66696775726174696F6E20636F727257
:103DF00075707465642028657870656374656420E7
:103E000030782530386C582C2073746F72656420BC
:103E100030782530386C58290A00000046617461FA
:103E20006C206572726F723A204952414D302050B9
:103E30004D5320415245415F3120636F6E66696783
:103E400075726174696F6E20636F727275707465DC
:103E50006420286578706563746564203078253047
:103E6000386C582C2073746F72656420307825305C
:103E7000386C58290A000000466174616C20657234
:103E8000726F723A204952414D3020504D532041BB
:103E90005245415F3220636F6E6669677572617467
:103EA000696F6E20636F7272757074656420286527
:103EB000787065637465642030782530386C582CD0
:103EC0002073746F7265642030782530386C5829FF
:103ED0000A000000466174616C206572726F723A6C
:103EE000204952414D3020504D5320415245415FB1
:103EF0003320636F6E66696775726174696F6E20D7
:103F0000636F72727570746564202865787065637C
:103F10007465642030782530386C582C2073746FA9
:103F20007265642030782530386C58290A0000000A
:103F3000466174616C206572726F723A204452411E
:103F40004D3020504D5320415245415F3020636F2A
:103F50006E66696775726174696F6E20636F7272E5
:103F60007570746564202865787065637465642075
:103F700030782530386C582C2073746F726564204B
:103F800030782530386C58290A0000004661746189
:103F90006C206572726F723A204452414D3020504D
:103FA0004D5320415245415F3120636F6E66696712
:103FB00075726174696F6E20636F7272757074656B
:103FC00064202865787065637465642030782530D6
:103FD000386C582C2073746F7265642030782530EB
:103FE000386C58290A000000466174616C206572C3
:103FF000726F723A204452414D3020504D5320414F
:104000005245415F3220636F6E66696775726174F5
:10401000696F6E20636F72727570746564202865B5
:10402000787065637465642030782530386C582C5E
:104030002073746F7265642030782530386C58298D
:104040000A000000466174616C206572726F723AFA
:10405000204452414D3020504D5320415245415F44
:104060003320636F6E66696775726174696F6E2065
:10407000636F72727570746564202865787065630B
:104080007465642030782530386C582C2073746F38
:104090007265642030782530386C58290A00000099
:1040A000466174616C206572726F723A20495241A8
:1040B0004D3020504D5320636F6E66696775726195
:1040C00074696F6E20636F727275707465642028F6
:1040D0006D656D6F72792070726F74656374696F4E
:1040E0006E206E6F7420656E61626C6564206F6E09
:1040F00020636F7265202564290A0000466174619F
:104100006C206572726F723A204452414D302050DB
:104110004D5320636F6E66696775726174696F6E67
:1041200020636F7272757074656420286D656D6FA1
:1041300072792070726F74656374696F6E206E6F30
:104140007420656E61626C6564206F6E20636F72AF
:1041500065202564290A0000466174616C2065723F
:10416000726F723A204952414D3020504D532063B6
:104170006F6E66696775726174696F6E20636F72C6
:1041800072757074656420286D656D6F727920702A
:10419000726F74656374696F6E206E6F74206C6FDC
:1041A000636B6564202D2073706C69742061646496
:1041B00072657373206C6F636B290A0046617461CA
:1041C0006C206572726F723A204952414D30205016
:1041D0004D5320636F6E66696775726174696F6EA7
:1041E00020636F7272757074656420286D656D6FE1
:1041F00072792070726F74656374696F6E206E6F70
:1042000074206C6F636B6564202D20676C6F626136
:104210006C20504D53206C6F636B290A0000000026
:10422000466174616C206572726F723A2049524126
:104230004D3020504D5320636F6E66696775726113
:1042400074696F6E20636F72727570746564202874
:104250006D656D6F72792070726F74656374696FCC
:104260006E206E6F74206C6F636B6564202D206D03
:104270006F6E69746F72206C6F636B206F6E20635A
:104280006F7265202564290A000000004661746190
:104290006C206572726F723A204452414D3020504A
:1042A0004D5320636F6E66696775726174696F6ED6
:1042B00020636F7272757074656420286D656D6F10
:1042C00072792070726F74656374696F6E206E6F9F
:1042D00074206C6F636B6564202D2073706C69743F
:1042E0002061646472657373206C6F636B290A00CC
:1042F000466174616C206572726F723A204452415B
:104300004D3020504D5320636F6E66696775726142
:1043100074696F6E20636F727275707465642028A3
:104320006D656D6F72792070726F74656374696FFB
:104330006E206E6F74206C6F636B6564202D206738
:104340006C6F62616C20504D53206C6F636B290A57
:1043500000000000466174616C206572726F723AF1
:10436000204452414D3020504D5320636F6E66699A
:104370006775726174696F6E20636F7272757074A5
:10438000656420286D656D6F72792070726F746539
:104390006374696F6E206E6F74206C6F636B6564FD
:1043A000202D206D6F6E69746F72206C6F636B20AF
:1043B0006F6E20636F7265202564290A000000007B
:1043C000636F72655F6964203E3D203020262620A1
:1043D000636F72655F6964203C20534F435F4350B5
:1043E000555F434F5245535F4E554D202626206959
:1043F0006E74725F646573635F72657420213D2023
:104400004E554C4C000000002F2F4944462F636F3F
:104410006D706F6E656E74732F6573705F68775F14
:10442000737570706F72742F706F72742F65737004
:10443000333273332F6573705F6370755F696E74A9
:10444000722E63006D61696E5F7461736B000000B2
:104450001B5B303B33326D492028256C75292025A4
:10446000733A2053746172746564206F6E204350F8
:104470005525641B5B306D0A000000001B5B303B60
:1044800033326D492028256C75292025733A204345
:10449000616C6C696E67206170705F6D61696E2818
:1044A000291B5B306D0A00001B5B303B33326D49CA
:1044B0002028256C75292025733A20526574757261
:1044C0006E65642066726F6D206170705F6D6169EA
:1044D0006E28291B5B306D0A000000006D61696E5B
:1044E000000000002F2F4944462F636F6D706F6EE0
:1044F000656E74732F6672656572746F732F617069
:10450000705F737461727475702E6300707851758A
:10451000657565536574436F6E7461696E6572008D
:104520002F2F4944462F636F6D706F6E656E7473E5
:104530002F6672656572746F732F4672656552548B
:104540004F532D4B65726E656C2F71756575652EB9
:104550006300000070785175657565536574436F2D
:104560006E7461696E65722D3E75784D6573736109
:1045700067657357616974696E67203C2070785174
:1045800075657565536574436F6E7461696E6572A8
:104590002D3E75784C656E677468000070785175B3
:1045A000657565007852657475726E20213D20280E
:1045B000202820282042617365547970655F74203B
:1045C0002920302029202900707853746174696390
:1045D00051756575650000007853697A65203D3D29
:1045E0002073697A656F66282051756575655F74FB
:1045F0002029000070784E6577517565756500005B
:1046000070707853746174696351756575650000E5
:104610007853656D6170686F726500007848616EEF
:10462000646C6500212820282070764974656D54DB
:104630006F5175657565203D3D202828766F69644A
:10464000202A293029202920262620282070785148
:10465000756575652D3E75784974656D53697A6524
:1046600020213D2028205542617365547970655F93
:1046700074202920305520292029000021282028B5
:104680002078436F7079506F736974696F6E203D45
:104690003D202820282042617365547970655F743D
:1046A0002029203220292029202626202820707821
:1046B00051756575652D3E75784C656E677468201B
:1046C000213D203120292029000000002128202818
:1046D00020785461736B4765745363686564756CC7
:1046E000657253746174652829203D3D2028202877
:1046F0002042617365547970655F742029203020F1
:10470000292029202626202820785469636B735499
:104710006F5761697420213D203020292029000035
:1047200070784D7574657800707851756575652D74
:104730003E75784974656D53697A65203D3D20303A
:1047400000000000212820282070785175657565CB
:104750002D3E706348656164203D3D202828766FBA
:104760006964202A29302920292026262028207023
:104770007851756575652D3E752E7853656D617040
:10478000686F72652E784D75746578486F6C6465D6
:104790007220213D202828766F6964202A2930293B
:1047A00020292029000000002820707851756575A7
:1047B000652029002128202820282070764275664F
:1047C0006665722029203D3D202828766F69642087
:1047D0002A293029202920262620282028207078E0
:1047E000517565756520292D3E75784974656D5341
:1047F000697A6520213D20282055426173655479EE
:1048000070655F7420292030552029202900000080
:1048100021282028207076427566666572203D3D0D
:10482000202828766F6964202A293029202920260B
:1048300026202820707851756575652D3E7578495C
:1048400074656D53697A6520213D202820554261A9
:104850007365547970655F742029203055202920B4
:104860002900000078517565756500007578546100
:10487000736B5072696F72697479203C2028203202
:10488000352029002F2F4944462F636F6D706F6EBE
:10489000656E74732F6672656572746F732F4672DE
:1048A000656552544F532D4B65726E656C2F746164
:1048B000736B732E63000000785461736B536368ED
:1048C0006564756C6564203D3D2028202820426188
:1048D0007365547970655F742029203120290000A8
:1048E00070785443422D3E756353746174696361FB
:1048F0006C6C79416C6C6F6361746564203D3D2024
:104900002820282075696E74385F74202920322091
:104910002900000075785072696F72697479203CC3
:1049200020282032352029007078544342000000AE
:1049300078506F7274476574436F726549442829D3
:10494000203D3D203000000028202820282028205D
:10495000707844656C617965645461736B4C6973FC
:104960007420292D3E75784E756D6265724F6649CB
:1049700074656D73203D3D20282055426173655458
:104980007970655F74202920302029203F2028205D
:10499000282042617365547970655F742029203145
:1049A0002029203A202820282042617365547970FC
:1049B000655F74202920302029202920290000004B
:1049C00070784576656E744C697374007078556EB6
:1049D000626C6F636B656454434200007578536387
:1049E000686564756C657253757370656E64656433
:1049F0005B20757850656E64436F7265205D202181
:104A00003D2028205542617365547970655F74209C
:104A1000292030550000000075785363686564757F
:104A20006C657253757370656E6465645B20785055
:104A3000656E64696E674C697374436F7265205D5F
:104A400020213D2028205542617365547970655FAF
:104A50007420292030550000707854696D654F75B9
:104A60007400000070785469636B73546F57616908
:104A70007400000075784E65775072696F726974C2
:104A800079203C2028203235202900007578536396
:104A9000686564756C657253757370656E64656482
:104AA0005B2078437572436F72654944205D203DF9
:104AB0003D20300070707578537461636B42756689
:104AC00066657220213D202828766F6964202A2996
:104AD000302900007070785461736B4275666665AA
:104AE0007220213D202828766F6964202A293029E8
:104AF0000000000028202820785461736B476574FB
:104B00005363686564756C657253746174652829B4
:104B1000203D3D202820282042617365547970652E
:104B20005F742029203020292029203F2028202898
:104B30002042617365547970655F742029203120AB
:104B400029203A2028202820426173655479706515
:104B50005F742029203020292029203D3D20282055
:104B6000282042617365547970655F742029203074
:104B700020290000707850726576696F75735761EF
:104B80006B6554696D65000028207854696D65492E
:104B90006E6372656D656E74203E2030552029006D
:104BA00028202820785461736B47657453636865C7
:104BB00064756C657253746174652829203D3D20CD
:104BC0002820282042617365547970655F7420291C
:104BD000203020292029203F2028202820426173CE
:104BE00065547970655F74202920312029203A208E
:104BF0002820282042617365547970655F742029EC
:104C0000203020292029203D3D20282028204261D5
:104C10007365547970655F74202920312029000064
:104C20007078544342203D3D207078437572726520
:104C30006E74544342735B2078506F72744765748E
:104C4000436F726549442829205D00007078544301
:104C5000422D3E75784D75746578657348656C6452
:104C600000000000707854434220213D20707843BA
:104C7000757272656E74544342735B2078506F7224
:104C800074476574436F726549442829205D0000AC
:104C90007578496E646578546F57616974203C205B
:104CA000310000007578496E646578546F4E6F74FA
:104CB000696679203C203100785461736B546F4EE3
:104CC0006F74696679000000785469636B436F758F
:104CD0006E74203D3D2028205469636B54797065C3
:104CE0005F742029203000002820282026282070EA
:104CF000785443422D3E784576656E744C697374E2
:104D00004974656D202920292D3E7078436F6E749B
:104D100061696E65722029203D3D202828766F69E3
:104D200064202A293029000078436F7265494420A5
:104D3000213D2030000000002F2F4944462F636F93
:104D40006D706F6E656E74732F6672656572746FC9
:104D5000732F6573705F6164646974696F6E732F1C
:104D60006672656572746F735F7461736B735F6392
:104D70005F6164646974696F6E732E68000000007F
:104D800028202820282028204261736554797065E6
:104D90005F7420292078436F726549442029203EA2
:104DA0003D2030202626202820282042617365548B
:104DB0007970655F7420292078436F7265494420BB
:104DC00029203C20322029203F2028202820426111
:104DD0007365547970655F74202920312029203A49
:104DE000202820282042617365547970655F742003
:104DF00029203020292029203D3D2028202820421C
:104E0000617365547970655F7420292031202920F1
:104E10007C7C2078436F72654944203D3D202820EA
:104E2000282042617365547970655F7420292030B1
:104E300078374646464646464620290078506F72E7
:104E400074636865636B56616C6964537461636B0A
:104E50004D656D28707578537461636B4275666635
:104E60006572290078506F7274436865636B566190
:104E70006C69645443424D656D2870785461736B5E
:104E800042756666657229007853697A65203D3DF2
:104E90002073697A656F6628205443425F74202925
:104EA0000000000049444C45000000007852657441
:104EB00075726E20213D2028202D31202900000010
:104EC00028202820282028204261736554797065A5
:104ED0005F7420292078436F726549442029203E61
:104EE0003D2030202626202820282042617365544A
:104EF0007970655F7420292078436F72654944207A
:104F000029203C20322029203F20282028204261CF
:104F10007365547970655F74202920312029203A07
:104F2000202820282042617365547970655F7420C1
:104F300029203020292029203D3D202820282042DA
:104F4000617365547970655F7420292031202900D0
:104F500028207849646C655461736B48616E646C99
:104F6000655B2078436F72654944205D20213D20B8
:104F70002828766F6964202A29302920290000001A
:104F80004672656552544F53000000001B5B303B76
:104F900033316D452028256C75292025733A20462C
:104FA00072656552544F53205461736B20222573F0
:104FB000222073686F756C64206E6F742072657444
:104FC00075726E2C2041626F7274696E67206E6F0D
:104FD00077211B5B306D0A001B5B303B33316D4525
:104FE0002028256C75292025733A20466174616C50
:104FF000206572726F723A20544C53502064656C75
:105000006574696F6E2063616C6C6261636B2061B3
:105010007420696E646578202564206F76657277E8
:1050200072697474656E2077697468206E6F6E2D76
:10503000657863757461626C6520706F696E746504
:10504000722025701B5B306D0A00000028757853B4
:105050007461636B506F696E74657220262028201E
:10506000307830303066202929203D3D2030000046
:105070002F2F4944462F636F6D706F6E656E74738A
:105080002F6672656572746F732F46726565525430
:105090004F532D4B65726E656C2F706F7274616229
:1050A0006C652F7874656E73612F706F72742E63E8
:1050B0000000000078506F7274496E497372436F3C
:1050C0006E746578742829203D3D20300000000072
:1050D0006C6F636B2D3E636F756E74203E203020C5
:1050E0002626206C6F636B2D3E636F756E74203CBB
:1050F00020307846460000006C6F636B2D3E6F7762
:105100006E6572203D3D20636F72655F6F776E65DF
:10511000725F6964000000006C6F636B2D3E636F0B
:10512000756E74203D3D2030000000006C6F636B95
:105130002D3E6F776E6572203D3D205350494E4C99
:105140004F434B5F46524545207C7C206C6F636B20
:105150002D3E6F776E6572203D3D206F74686572DD
:105160005F636F72655F6F776E65725F6964000081
:105170006C6F636B2D3E636F756E74203C203078CE
:1051800046460000636F72655F6F776E65725F6998
:1051900064203D3D206C6F636B2D3E6F776E6572B2
:1051A000000000006C6F636B2D3E636F756E7420A2
:1051B0003C203078313030006E657374696E672042
:1051C0003E2030002A2A2A4552524F522A2A2A20AB
:1051D0004120737461636B206F766572666C6F77C4
:1051E00020696E207461736B200000002068617379
:1051F000206265656E2064657465637465642E0065
:10520000707854434242756666657254656D7020CD
:10521000213D204E554C4C002F2F4944462F636FA3
:105220006D706F6E656E74732F6672656572746FE4
:10523000732F706F72745F636F6D6D6F6E2E63008E
:105240007078537461636B42756666657254656D00
:105250007020213D204E554C4C0000006573705F5E
:10526000696E74725F616C6C6F63284554535F5351
:10527000595354494D45525F544152474554305F4C
:10528000494E54525F534F55524345202B20637073
:105290007569642C204553505F494E54525F464C0B
:1052A00041475F4952414D207C206C6576656C2CEE
:1052B000205379735469636B49737248616E646CEF
:1052C00065722C202673797374696D65725F6861ED
:1052D0006C2C204E554C4C29000000002F494446B0
:1052E0002F636F6D706F6E656E74732F6672656578
:1052F00072746F732F706F72745F737973746963F4
:105300006B2E63006C6F636B20213D204E554C4C1F
:105310002026262022556E696E697469616C697A4F
:105320006564206C6F636B207573656422000000F8
:105330002F2F4944462F636F6D706F6E656E7473C7
:105340002F6E65776C69622F6C6F636B732E6300D1
:105350006820213D202828766F6964202A29302979
:10536000000000007851756575654765744D75746A
:105370006578486F6C646572282028206820292091
:1053800029203D3D202828766F6964202A2930296C
:105390000000000068616E646C65203D3D2028536C
:1053A000656D6170686F726548616E646C655F748D
:1053B000292026735F636F6D6D6F6E5F6D75746509
:1053C0007800000068616E646C65203D3D202853C4
:1053D000656D6170686F726548616E646C655F745D
:1053E000292026735F636F6D6D6F6E5F72656375E5
:1053F00072736976655F6D75746578002F64657684
:105400002F636F6E736F6C650000000070746872BC
:10541000656164001B5B303B33316D452028256C92
:1054200075292025733A204661696C656420746F84
:1054300020616C6C6F63617465207461736B2061B3
:10544000726773211B5B306D0A0000001B5B303BF1
:1054500033316D452028256C75292025733A204667
:1054600061696C656420746F20616C6C6F6361743A
:105470006520707468726561642064617461211BC9
:105480005B306D0A000000001B5B303B33316D4523
:105490002028256C75292025733A204661696C65A2
:1054A0006420746F20637265617465207461736B2E
:1054B000211B5B306D0A000066616C736520262637
:1054C00020224661696C656420746F206C6F636B89
:1054D0002074687265616473206C697374212200A2
:1054E0002F2F4944462F636F6D706F6E656E747316
:1054F0002F707468726561642F707468726561647E
:105500002E63000066616C736520262620224661AA
:10551000696C656420746F20756E6C6F636B206DB1
:105520007574657821220000746C7320213D204E33
:10553000554C4C002F2F4944462F636F6D706F6E92
:10554000656E74732F707468726561642F7074680F
:10555000726561645F6C6F63616C5F73746F7261BD
:1055600067652E6300000000766F696420776169CB
:10557000745F666F725F67756172645F6F626A28DD
:1055800067756172645F742A290000002F2F4944F7
:10559000462F636F6D706F6E656E74732F637878CE
:1055A0002F6378785F6775617264732E6370700023
:1055B000696E74205F5F6378615F67756172645FB5
:1055C00061637175697265285F5F6378786162698C
:1055D00076313A3A5F5F67756172642A290000008C
:1055E000766F6964205F5F6378615F67756172647D
:1055F0005F72656C65617365285F5F63787861626F
:105600006976313A3A5F5F67756172642A290000F2
:10561000672D3E70656E64696E67202626202274B1
:105620007269656420746F2072656C6561736520B2
:1056300061206775617264207768696368207761AB
:10564000736E27742061637175697265642200004E
:1056500073797374656D5F74696D65001B5B303BB6
:1056600033336D572028256C75292025733A205235
:10567000656769737465722073687574646F776E9B
:105680002068616E646C6572206661696C65642C6B
:1056900020657272203D20307825781B5B306D0AC2
:1056A00000000000616C61726D5F6964203C2073D2
:1056B000697A656F662874696D657374616D705F72
:1056C000696429202F2073697A656F662874696D73
:1056D000657374616D705F69645B305D2900000003
:1056E0002F2F4944462F636F6D706F6E656E747314
:1056F0002F6573705F74696D65722F7372632F65A8
:1057000073705F74696D65725F696D706C5F7379DA
:105710007374696D65722E63000000006573705FBD
:1057200074696D65725F73797374696D6572000079
:105730001B5B303B33316D452028256C75292025B6
:10574000733A2074696D6572204953522069732041
:10575000616C726561647920696E697469616C69F4
:105760007A65641B5B306D0A000000001B5B303BF8
:1057700033316D452028256C75292025733A206525
:1057800073705F696E74725F616C6C6F63206661C9
:10579000696C6564202830782578291B5B306D0A98
:1057A000000000001B5B303B33316D452028256C29
:1057B00075292025733A2043616E206E6F74206531
:1057C0006E61626C6520495352202830782530780C
:1057D000291B5B306D0A00002F3000002F310000C4
:1057E0002F3200006664203E3D20302026262066B1
:1057F00064203C20330000002F2F4944462F636F64
:105800006D706F6E656E74732F6573705F6472690F
:105810007665725F756172742F7372632F75617232
:10582000745F7666732E6300735F6374785B66647F
:105830005D2D3E7065656B5F63686172203D3D2044
:105840004E4F4E45000000006320213D204E4F4E3C
:10585000450000002F6465762F75617274000000AA
:105860006573705F7666735F72656769737465727E
:1058700028222F6465762F75617274222C2026757C
:105880006172745F7666732C204E554C4C29000073
:105890002F4944462F636F6D706F6E656E74732F62
:1058A0006573705F6472697665725F756172742F7B
:1058B0007372632F756172745F7666732E63000076
:1058C00075617274000000001B5B303B33316D4525
:1058D0002028256C75292025733A202573282564F6
:1058E000293A20756172745F6E756D206572726FF2
:1058F000721B5B306D0A00001B5B303B33336D570E
:105900002028256C75292025733A204661696C2072
:10591000746F20656E71756575652070617474654E
:10592000726E20706F736974696F6E2C2070617471
:105930007465726E20717565756520697320667572
:105940006C6C2E1B5B306D0A000000001B5B303B53
:1059500033316D452028256C75292025733A202583
:1059600073282564293A2064617461206269742077
:105970006572726F721B5B306D0A00001B5B303BFF
:1059800033316D452028256C75292025733A202553
:1059900073282564293A2073746F7020626974201B
:1059A0006572726F721B5B306D0A00001B5B303BCF
:1059B00033316D452028256C75292025733A202523
:1059C00073282564293A20496E76616C69642073D6
:1059D00072635F636C6B1B5B306D0A001B5B303B5B
:1059E00033316D452028256C75292025733A2025F3
:1059F00073282564293A20727820666C6F772074AA
:105A00006872657368206572726F721B5B306D0A15
:105A1000000000001B5B303B33316D452028256CB6
:105A200075292025733A202573282564293A206892
:105A3000775F666C6F776374726C206D6F6465203E
:105A40006572726F721B5B306D0A00001B5B303B2E
:105A500033316D452028256C75292025733A202582
:105A600073282564293A20756172742064726976FE
:105A70006572206572726F721B5B306D0A000000E8
:105A80001B5B303B33316D452028256C7529202563
:105A9000733A202573282564293A20656D7074793E
:105AA00020696E7472207468726573686F6C64200C
:105AB0006572726F721B5B306D0A00001B5B303BBE
:105AC00033316D452028256C75292025733A202512
:105AD00073282564293A2074785F696F5F6E756D4D
